:020000040800F2
:10000000100E0020A1010008AB230008F31F000818
:10001000A9230008D1020008013A000800000000EE
:10002000000000000000000000000000BB230008EA
:100030000104000800000000B9230008BD230008E7
:10004000BB010008BB010008BB010008BB010008A0
:10005000BB010008BB010008BB010008BB01000890
:10006000BB010008BB010008BB010008BB01000880
:10007000BB010008BB010008BB010008BB01000870
:10008000BB010008BB010008BB010008BB01000860
:10009000BB010008BB010008BB010008BB01000850
:1000A000BB010008BB010008BB010008BB01000840
:1000B000BB010008BB010008BB010008BB01000830
:1000C000BB010008BB010008BB010008BB01000820
:1000D000BB010008BB010008BB010008BB01000810
:1000E000BB010008BB010008BB010008BB01000800
:1000F000BB010008BB010008BB010008BB010008F0
:10010000BB010008BB010008BB010008BB010008DF
:10011000BB010008BB010008BB010008BB010008CF
:10012000BB010008BB010008BB010008BB010008BF
:10013000BB010008BB010008BB010008BB010008AF
:10014000BB010008BB010008BB010008AD2300088B
:10015000BB010008BB010008BB010008BB0100088F
:10016000BB010008BB010008BB010008BB0100087F
:10017000BB010008BB010008BB0100080000000033
:10018000BB010008BB010008DFF810D000F08EF8BA
:1001900000480047913A0008AFF30080100E00209D
:1001A0000648804706480047FEE7FEE7FEE7FEE711
:1001B000FEE7FEE7FEE7FEE7FEE7FEE77524000840
:1001C000890100082DE9F05F0546002092469B4614
:1001D00088460646814640241BE02846414647465D
:1001E000224600F053F853465A46C01A914110D3A4
:1001F00011461846224600F03AF82D1A67EB01081E
:100200004F4622460120002100F031F817EB00098B
:100210004E41201EA4F10104DFDC484631462A4647
:100220004346BDE8F09F40EA01039B0703D009E085
:1002300008C9121F08C0042AFAD203E011F8013BD2
:1002400000F8013B521EF9D27047D2B201E000F82B
:10025000012B491EFBD270470022F6E710B513466A
:100260000A4604461946FFF7F0FF204610BD202A33
:1002700004DB203A00FA02F1002070479140C2F1FD
:10028000200320FA03F3194390407047202A04DB2F
:10029000203A21FA02F00021704721FA02F3D040FF
:1002A000C2F120029140084319467047064C074DA1
:1002B00006E0E06840F0010394E807009847103436
:1002C000AC42F6D3FFF764FFBC3B0008DC3B000800
:1002D000FEE7000070B50546D0F87C03C46994F8C9
:1002E0004E0003281BD0042818D1217B284602F099
:1002F00079FD012812D1217B284602F05EFDA16A1A
:10030000814214D0628B824211D2091AA162216A01
:10031000084420625FF0030084F84E0070BD237B28
:10032000628B2846216A02F0C9F80420F4E7002015
:1003300084F84E00284602F025FA70BDF8B506464E
:10034000D0F87C030125C46994F84D0001280AD037
:10035000022807D1617B304602F044FD012811D00C
:1003600002281AD0F8BD228B606A0095637B904208
:1003700000D882B23046E16902F0B0F8022084F879
:100380004D00F8BD208B626A0021824208D9121A02
:100390006262E3691844E06103D084F84D50F8BD0F
:1003A000616284F84D10304602F0EFF9F8BD0000AC
:1003B00010B500224FEA020100EB8203521CC3F881
:1003C00084130F2AF8D300224FF400738418521CB0
:1003D00084F81C119A42F9D3017041700122827095
:1003E000C0F8C413027640238371417680F81C1351
:1003F00080F81D2380F81F1380F81E13002010BD05
:10040000704772B6FEE7A1220274212242740022D4
:10041000428282820722C28202F0DBB970B50446B2
:1004200000F014F90546601C02D00448007804442A
:1004300000F00CF9401BA042FAD370BD040000206C
:100440002DE9F84FDFF8BCA1002201250AF1040BC9
:1004500003264FF00F090BF1040E00BF0B6805FADD
:1004600002F42340A34270D10F7907F00307012F54
:1004700001D0022F16D187684FEA420806FA08FC1D
:1004800027EA0C07D1F80CC00CFA08FC4CEA070C60
:10049000C0F808C04768A7430C79C4F3001494401F
:1004A0003C4344600C79E443A4070AD0C4684FEA93
:1004B000420C06FA0CF7BC438F6807FA0CF7274387
:1004C000C7600C7904F00304022C12D1D40800EBAD
:1004D000840CDCF820405707FF0E09FA07F824EADD
:1004E0000804D1F8108008FA07F848EA0408CCF8A4
:1004F000208004684FEA420C06FA0CF7BC430F79DF
:1005000007F0030707FA0CF7274307604C6814F459
:10051000403F70D03C4C276847F4804727602468F0
:1005200022F0030704F480440094384C07EB040CD9
:10053000DCF8084897074FEA177809FA08F7BC4330
:10054000334FB84202D1002724E054E0314FB84283
:1005500001D101271EE0304FB84201D1022719E036
:100560002E4FB84201D1032714E02D4FB84201D1DC
:1005700004270FE02B4FB84201D105270AE02A4F8C
:10058000B84201D1062705E0284FB84201D107271C
:1005900000E0082707FA08F72743CCF80878DAF8CC
:1005A00000405746D1F804C09C435FEACC3C00D5DC
:1005B0001C433C60DBF800405F46D1F804C09C431C
:1005C0005FEA8C3C00D51C433C60DEF80040774677
:1005D000D1F804C09C435FEACC2C00D51C433C609E
:1005E000084F0C373C68D1F804C09C435FEA8C2C60
:1005F00000D51C433C60521C102AFFF42FAFBDE80D
:10060000F88F0000003C01404438024000300140B7
:10061000000002400004024000080240000C0240BA
:10062000001002400014024000180240001C02406A
:10063000426921EA02030A4043EA024181617047AC
:100640000AB1816170470904FBE700000148806836
:100650007047000004000020D0F8000302F07FBBC8
:10066000D0F8000302F085BB006802F0F1BE00681C
:1006700002F0F2BE01EB410202EBC10100EB81008E
:1006800090F86000704701EB410202EBC10100EB02
:100690008100006D704710B5044690F8F8020128FB
:1006A00009D0012084F8F802206802F0E0FE002062
:1006B00084F8F80210BD022010BD2DE9FE43054666
:1006C000DDE90B7095F8F842DDF828C0012C1ED04A
:1006D00001EB410404EBC1044FF0010905EB840474
:1006E00085F8F892002684F83D6084F83830A4F844
:1006F000400084F8391084F83F7002F07F0884F8D5
:100700003A805FEA026805D584F83B9004E0022055
:10071000BDE8FE8384F83B6084F83CC0CDF800C09F
:10072000CDE90170286802F00FFF85F8F862EFE765
:1007300070472DE9F00301EB4104DDE906C9DDE96D
:10074000087504EBC10400EB8404022684F83B2006
:1007500084F83F30BCF1000F0AD084F842600025D5
:100760006BB1012B2FD0022B12D0032B16D10FE02F
:100770004FF0030884F8428084F83D50EFE7BCF165
:10078000010F0BD152B9DFB9012284F8552003E0E3
:10079000B2B194F85420B2B184F84260C4F84490E5
:1007A000E76484F86050256584F8391084F8615056
:1007B000027C04F138010068BDE8F00302F045BF97
:1007C00094F85520E7E784F84250E7E72DE9F04137
:1007D00006680446304602F046FE012875D12068BE
:1007E00003F04FF8002870D0206803F04AF8800228
:1007F00003D521684FF400104861206803F041F8E8
:10080000C00203D521684FF480104861206803F0CE
:1008100038F8400103D521684FF0806048612068B6
:1008200003F02FF8800702D5216802204861206874
:1008300003F027F8800015D521684FF0005048617B
:10084000D6F84004C0070DD11021304602F0EAFD71
:10085000304602F0D3FD0121206802F0F7FF204668
:10086000FFF7FEFE206803F00CF8C00102D5204619
:1008700001F02FFB206803F004F8000705D520469F
:1008800000F0CFF8216808204861206802F0F9FFE5
:10089000C043C0060CD42068816921F01001816139
:1008A000204601F060FB2068816941F01001816100
:1008B000206802F0E6FF800123D5206802F0C1FE27
:1008C000074600254FF0010814E01AE005F00F017B
:1008D00008FA01F038420CD006EB4510D0F80005BC
:1008E000E9B20004204602D501F060F801E001F011
:1008F0009BF96D1CA068A842E8D821684FF00070F1
:100900004861BDE8F08170B58AB0040005D094F864
:10091000F9022568002618B107E001200AB070BD71
:1009200084F8F862204600F027F8032084F8F902E2
:10093000E86BC00500D42661206802F02BFD04F1AD
:10094000100128220D466846FFF76DFC94E80F0061
:1009500002F0C6FC0121206802F0CFFF28222946C0
:100960006846FFF760FC94E80F0002F00FFF0120DB
:1009700084F8F9020020D1E730B587B0044614218D
:100980006846FFF769FC2068B0F1A04F38D11D48D8
:100990000024016841F00101016000681A4D00F077
:1009A000010005904FF40070CDE900046946284627
:1009B0000294FFF745FD4FF4E05000900220CDE98E
:1009C00001040A20CDE9034069462846FFF738FDB7
:1009D0000C48001D016841F0800101600948143095
:1009E000016841F4804101600068002200F4804009
:1009F00005901146432000F0A5FB432000F094FB36
:100A000007B030BD3038024000000240D0F800038B
:100A100002F032BAD0F8000302F032BA006802F0F5
:100A200053BFD0F8000302F0E1B910B5044690F8C6
:100A3000F80201280DD0012084F8F8020121206875
:100A400002F0C0FC206802F0D3FC002084F8F80219
:100A500010BD022010BD10B5044690F8F802012820
:100A600009D0012084F8F802206802F075FF002008
:100A700084F8F80210BD022010BD000070B504001B
:100A800025D094F83D00002520B984F83C5020463C
:100A900000F0B8F8242084F83D002068016821F0B7
:100AA000010101602068016841F400410160206893
:100AB000016821F40041016000F0DCFC4D4A6168EE
:100AC000914201D84C4900E04C49884201D20120B2
:100AD00070BD4B492368B0FBF1F15E6826F03F061C
:100AE0000E435E606368934206D94FF49673594390
:100AF0004FF47A73B1FBF3F12368491C1E6A26F0A8
:100B00003F06314319626168914210D84900401E86
:100B1000B0FBF1F2521CC2F30B02042A01D20420F2
:100B200022E0B0FBF1F0401CC0F30B001CE0A26817
:100B3000F2B301EBC10303EB0116431EB3FBF6F363
:100B40005B1C43F480431B0549D092B301EBC10207
:100B500002EB0111401EB0FBF1F0401CC0F30B0092
:100B600040F4804040F400402168CA694CF6FF73AD
:100B70009A431043C861D4E9071001432068026812
:100B800022F0C00211430160D4E90301014320684F
:100B9000826848F2FF339A4311438160D4E905012A
:100BA00008432168CA6822F0FF021043C86001E0D0
:100BB0000EE016E02068016841F001010160256443
:100BC000202084F83D00256384F83E50002070BD4D
:100BD00001EB4106431EB3FBF6F35B1CB3E70120B8
:100BE000C2E701EB4101401EB0FBF1F0401CC0F335
:100BF0000B00B7E7A086010080841E0000093D00BD
:100C000040420F0010B586B0044614216846FFF735
:100C100023FB14492068884221D11348002102682F
:100C200042F002020260006800F0020005904FF4FA
:100C300010700090122001900120CDE902010420E3
:100C4000049069460948FFF7FBFB0748103001682C
:100C500041F400110160006800F40010059006B036
:100C600010BD000000540040303802400004024033
:100C70002DE9FF4104460068816800917749784E6C
:100C80004FF04027884201D1324600E03A46926850
:100C9000019240688846029001D1304600E0384613
:100CA0004068039060684FF00105B0F5007F1CD0EC
:100CB000D8B1900705D50398000602D5204601F06B
:100CC000C9F90098C0070FD0029840067FD5216867
:100CD0002046CA68E16A8B1CE3620A80618E491E65
:100CE0006186618E002967D071E00098800719D570
:100CF0000298000616D5616A20468A1C6262226844
:100D00000988D160618D491E6185618D51B9016885
:100D10004A6822F0A0024A60418E19B980F8415019
:100D200000F0A0F80198C00705D00398400602D54E
:100D3000204601F05FF90198400622D5039880060D
:100D40001FD52168414501D1304600E03846406852
:100D500020F0600101D1304600E038464160206853
:100D6000416821F0A00141602068C168806801905D
:100D700084F84150606C40F002006064204600F04E
:100D800072F80098000767D50298800664D520683D
:100D9000416821F0A00141602168414501D1304600
:100DA00000E03846406820F0600000D03E467060A9
:100DB00020688068009043E001684A6822F0600281
:100DC0004A60418D19B980F8415000F04BF8009805
:100DD00040061ED5029880061BD52068416821F088
:100DE000600141602168414501D1304600E038464C
:100DF000406820F0A00101D1304600E03846416053
:100E000084F84150606C40F002006064204600F0BD
:100E10002AF8019800071FD5039880061CD5216881
:100E2000414501D1304600E03846406820F0A0003E
:100E300000D03E4670602068416821F0600141604A
:100E400084F84150606C40F00400606404B02046B7
:100E5000BDE8F04100F007B8BDE8FF810038004070
:100E600000340040704770472DE9F047040005D07A
:100E700094F841004FF0000818B109E00120BDE8E6
:100E8000F08784F8408051486063204600F0A6F85F
:100E9000022684F841602068C16940F6BF77B943F3
:100EA000C1612068066260694FF4007902282FD082
:100EB000E06870B12025A068202800D86D000120CE
:100EC00000F072F9216949451FD1E16819B1A90003
:100ED00002E01025EFE7E900B0FBF1F000EB800045
:100EE00061694000B0FBF1F0401D0A21B0FBF1F058
:100EF00000F00101401A40080902821EFE2A09D3AF
:100F0000606C40F010006064B8E7B0FBF5F0E5E716
:100F10000220002122690843024320680262D4E9CA
:100F200001010843A269E168114308432168CA69C5
:100F3000BA43104340F40060C861206A01283AD1E6
:100F40002348606323482168234A4FF040238142AD
:100F500001D1114600E01946C96921EA070101D112
:100F6000154600E01D46E9612168814201D1114624
:100F700000E019460E622568854201D1114600E065
:100F80001946C9698EB2616849451BD0D1B10021AB
:100F90002789B4F80CC047EA0C07B4F818C04CEA2B
:100FA000010C47EA0C07B9B2314341F400618542B4
:100FB00000D01A46D161C4F84480012084F8410071
:100FC00000205CE74FF48071E2E70000B5200008E4
:100FD000710C0008003800400034004070B586B045
:100FE000044614216846FFF737F91C4920688842F7
:100FF00032D11B480024016841F4004101600068BF
:1010000000F40040059016481038016841F00101D5
:101010000160016801F001010591016841F00401DE
:1010200001600068022500F0040005901020009087
:10103000CDE901540626CDE9034669460948FFF784
:10104000FFF94FF4A4500090CDE90154CDE90346D7
:1010500069460548FFF7F4F906B070BD003C004052
:1010600040380240000002400008024070477047CC
:1010700002488168027811448160704704000020B2
:101080000B4810B5016841F400710160016841F43A
:1010900080610160016841F480710160032000F00B
:1010A00071F8002000F006F800F024F8002010BDD0
:1010B000003C024070B50D4D04464FF47A7128781B
:1010C000B1FBF0F00A490968B1FBF0F000F05AFCFE
:1010D00048B9102C07D200222146501E00F032F8E9
:1010E00000206C6070BD012070BD00000400002075
:1010F000100000200B4882B0016841F4804101607B
:10110000006800F4804000900648001F016841F02C
:1011100080510160006800F080500090072002B00C
:1011200000F030B844380240002809DB00F01F020C
:10113000012191404009800000F1E020C0F8001139
:1011400070470000F0B40E4B1B680C46C3F302233B
:10115000C3F10705042D00D90425191D072901D263
:10116000002300E0DB1E012606FA05F1491E21409E
:1011700099409E40761E16403143F0BC02F041BCBF
:101180000CED00E0064900F0070208684FF6FF0387
:10119000184040EA0220034A1043086070470000EC
:1011A0000CED00E00000FA0501460020012907D1FE
:1011B0001049096811F4000103D0012900D10E483B
:1011C00070470C48001F01680068490200F03F00AA
:1011D00001D50A4900E00A49064AB1FBF0F07C3229
:1011E0001168C1F3881141431068C0F30270B1FB6C
:1011F000F0F07047083802400080BB0000127A000F
:101200000024F4002DE9F843054600684FF0010979
:10121000C1074FF0000601D1400727D5DFF80C8148
:10122000C8F86860FFF712FA0746414C05E000BFB6
:10123000FFF70CFAC01B022857D820680001F7D42A
:1012400068688101287A41EA007039498431086070
:10125000C8F86890FFF7FAF9074604E0FFF7F6F9D7
:10126000C01B022841D820680001F7D528788007E4
:1012700052D52F484030016841F08051016000682C
:101280002C4C00F080500090206840F4807020606A
:10129000FFF7DCF9074604E0FFF7D8F9C01B022886
:1012A00023D82068C005F7D5214C7034206810F48D
:1012B000407020D0A98901F4407181421BD0206880
:1012C0001D4920F44070C1F800900E602060206835
:1012D000C00710D0FFF7BAF9064641F2883707E099
:1012E000FFF7B4F9801BB84202D90320BDE8F883A8
:1012F00020688007F4D5E9680D48C1F30122083061
:10130000032A0BD0016821F4F81101602068A98933
:10131000C1F30B01084320600020E7E70268074B98
:1013200022F4F81219400A430260EFE70000474236
:101330000038024000700040400E4742FFFCFF0FA3
:101340002DE9F0470E46050065D0DFF81481D8F886
:101350000000F7B200F00700B04207D288F8007032
:10136000D8F8000000F00700B04254D128683D4C86
:10137000810712D5400703D5206840F4E050206073
:101380002878000703D5206840F46040206020687A
:10139000A96820F0F000084320602878C0072DD00D
:1013A000304968680839012812D0022813D0032870
:1013B00011D00968890700292DDA216821F003017D
:1013C00001432160FFF742F9814641F2883A0EE07D
:1013D00009688903EFE709688901ECE7FFF736F947
:1013E000A0EB0901514502D90320BDE8F087206830
:1013F000696800F00C00B0EB810FEFD1D8F8001055
:10140000404601F00701B14207D90770006800F0BB
:101410000700B04201D00120E7E72878400705D552
:101420002068E96820F4E05008432060287800072D
:1014300006D52068296920F4604040EAC100206098
:1014400000F028F82168084AC1F30311515CC84034
:101450000649086006480068FFF72CFE0020C4E734
:10146000003C024008380240A03B00081000002069
:10147000080000200448054900680968044AC1F3CF
:101480008221515CC840704710000020083802409B
:10149000B03B0008154810B5006810F00C02144865
:1014A00013D04110042A0FD0082A0ED10F4C241F4C
:1014B0002268236802F03F025B0207D52068C0F370
:1014C0008810A0FB010106E0084610BD2168C1F3A9
:1014D0008811A1FB00010023FEF774FE2168C1F30F
:1014E0000141491C4900B0FBF1F010BD0838024031
:1014F0000024F4002DE9F84F04006ED02078DFF8C6
:101500004C93C007A9F104054AD009F10400016811
:10151000C1F38101012908D00068C0F381000228CD
:101520000AD1D9F80000400206D52868800337D5D3
:1015300060680028E1D033E06068B0F5803F10D0EB
:10154000B0F5A02F286810D020F4803028602868DB
:1015500020F4802028606068A8B1FFF777F806467D
:101560000DE0286840F48030F4E740F480202860E3
:10157000F7E700BFFFF76AF8801B642873D8286874
:101580008003F7D50CE0FFF761F8064605E000BFE1
:10159000FFF75CF8801B6428F0D828688003F7D434
:1015A0002078DFF8AC8280074FF0000A3ED5A748CC
:1015B000001D016811F00C0F08D00068C0F3810015
:1015C00002280BD1D9F80000400207D42868800710
:1015D00016D5E068012800D112E033E1E068B8B127
:1015E0000120C8F80000FFF731F8064605E000BF0B
:1015F000FFF72CF8801B0228C0D828688007F7D591
:101600002868216920F0F80040EAC10028600DE058
:10161000C8F800A0FFF71AF8064604E0FFF716F82E
:10162000801B02281FD828688007F7D4207800077D
:1016300022D5864F87486169703771B101210160F9
:10164000FFF704F8064604E0FFF700F8801B0228C5
:1016500009D838688007F7D50EE0C0F800A0FEF77B
:10166000F5FF064605E082E0FEF7F0FF801B02284A
:101670007DD838688007F7D42078400768D5DFF830
:10168000CCB100270BF13C0BDBF80000C0000BD401
:10169000DBF8001041F08051CBF80010DBF80000BF
:1016A000012700F0805000906B4E3068C00510D4C8
:1016B000306840F480703060FEF7C8FF009005E0AD
:1016C000FEF7C4FF0099401A022850D83068C005C0
:1016D000F6D55E4EA0686C3601280FD0052830681C
:1016E00010D020F001003060306820F0040030603D
:1016F000A068B8B1FEF7AAFF00900FE0306840F094
:101700000100F4E740F004003060F7E7FEF79EFFC9
:101710000099411A41F28830814266D830688007CA
:10172000F4D50EE0FEF792FF009007E0FEF78EFF83
:101730000099411A41F28830814256D830688007BA
:10174000F4D42FB1DBF8001021F08051CBF8001059
:10175000A069C8B33D49091D0968C1F38101022987
:101760004AD00228504607D0C8F8600000E03CE0AC
:10177000FEF76CFF04463BE04746C8F86000FEF702
:1017800065FF064605E000BFFEF760FF801B0228EC
:101790002BD828688001F7D4D4E907010843A16A4F
:1017A0002E4A490802EB0141626A41EA821108436C
:1017B00094F82C1040EA0161C9F800100120386645
:1017C000FEF744FF044606E03EE000BFFEF73EFFA2
:1017D000001B022809D828688001F7D534E000BF33
:1017E000FEF734FF001B022802D90320BDE8F88F62
:1017F00028688001F4D427E00128F7D0D9F8000048
:10180000E26900F4800191421CD1226A00F03F019C
:10181000914217D147F6C071626A0140B1EB821F55
:1018200010D1A26A4FF0FF3300F4403103EB5202B3
:10183000B1EB024F06D194F82C1000F07060B0EBC1
:10184000016F01D00120D1E70020CFE7043802402A
:1018500000004742800E4742007000400000FFFF3A
:1018600070B5040009D0606A002540B1256165614A
:10187000A56294F8510040B10CE0012070BD606891
:10188000B0F5827FF4D0E561F2E784F8505020464D
:1018900000F044F8022084F851002068016821F02B
:1018A00040010160A088218900F4827001F40441A4
:1018B0000843A18901F400610843217C01F0020181
:1018C0000843217D01F001010843218B01F40071DF
:1018D0000843217F01F03801084394F8201001F0FB
:1018E00080010843218D01F40051084321680860FC
:1018F000A069042101EA104094F8241001F01001BD
:101900000843216848602068C16921F40061C16111
:101910006565012084F85100002070BD10B586B0C7
:10192000044614216846FEF797FC13492068884254
:101930001FD112480021026842F480520260006800
:1019400000F4805005900D481438026842F00102FE
:101950000260006800F001000590E0200090022085
:10196000CDE901010520CDE9031069460448FEF7E1
:1019700067FD06B010BD0000003001404438024051
:101980000000024010B5401EB0F1807F01D301205D
:1019900010BD4FF0E02460610F21601702F031F8B4
:1019A0000020A06107202061002010BD2DE9F04734
:1019B000074600680E4600EB4114D4F808054FF0C6
:1019C0000409420701EB410000EBC6004FF0050A95
:1019D0004FF0100807EB800508D5C4F80895D4F837
:1019E0000C0540F00200C4F80C0553E0D4F80805DB
:1019F000C0050DD54FF48070C4F80805072085F8A0
:101A00006100D4F80C0540F00200C4F80C0529E090
:101A1000D4F80805800601D5202039E0D4F808055F
:101A200001074FF008000AD5D4F80C1541F0020167
:101A3000C4F80C1585F861A0C4F808850FE0D4F847
:101A40000815490512D5D4F80C1541F00201C4F867
:101A50000C1585F86100C4F808854FF48060C4F85F
:101A600008053146386801F002FD13E0D4F8080596
:101A700000060FD5D4F80C0540F00200C4F80C05A0
:101A8000062085F861003146386801F0F0FC8020BE
:101A9000C4F80805D4F80805800510D5D4F80C055D
:101AA00040F00200C4F80C05314604F5A164386822
:101AB00001F0DDFC4FF400702060BDE8F087D4F841
:101AC00008054FF00001C0074FF001024BD0386904
:101AD00030B1A86CD4F81035C3F31203C01A2865CE
:101AE00085F86120E965C4F8082595F83F0030B114
:101AF000022804D0032811D0012818D023E0D4F8FC
:101B00000C0540F00200C4F80C05314604F5A16450
:101B1000386801F0ACFCC4F8008014E0D4F800058B
:101B200040F00050C4F8000585F8602007E085F813
:101B3000602095F8540080F0010085F8540031468B
:101B40003846FEF7F5FD3869012806D1B5F8401092
:101B5000A86CB0FBF1F0C007AFD015F8540F80F0BF
:101B600001002870A9E7D4F8080580073BD5D4F810
:101B70000C0520F00200C4F80C0595F86100022362
:101B800001280AD005280BD006280CD008280AD036
:101B900003280FD0072818D01CE085F8602019E032
:101BA00085F860A016E0E86D401CE865022801D9C0
:101BB000E9650DE085F86030D4F8000520F080403C
:101BC00040F00040C4F8000504E0E86D401CE86502
:101BD00085F86090C4F8083595F86020314638469D
:101BE000FEF7A6FD69E7D4F80805C006BAD595F852
:101BF0003F00032803D020B1022802D011E0E9659C
:101C000005E0E965386960B9032085F86100D4F81A
:101C10000C0540F00200C4F80C053146386801F0AC
:101C200026FCC4F8088548E72DE9F047026802EB76
:101C30004114D4F8082553074FF0040209D5C4F81D
:101C40000825D4F80C0540F00200C4F80C05BDE8E6
:101C5000F087D4F8083501EB41079E0607EBC10574
:101C60004FF0000300EB85054FF0020C15D5202244
:101C7000C4F8082595F83D20012AE8D185F83D30C3
:101C800085F860C0D4F80C2542F00202C4F80C2597
:101C90000068BDE8F04701F0EABBD4F80865B60576
:101CA0000DD5D4F80C2542F00202C4F80C250068CA
:101CB00004F5A16401F0DBFB4FF400706DE0D4F893
:101CC00008654FF040075FEAC6784FF0010617D06D
:101CD000EB65D4F80825520603D585F83D60C4F8B5
:101CE0000875D4F80C2542F00202C4F80C250068EF
:101CF00004F5A16401F0BBFB266085F86160A6E7EE
:101D0000D4F808855FEA486811D585F8612085F820
:101D10003D60EB65D4F80C2542F00202C4F80C25B6
:101D2000006804F5A16401F0A2FB27608FE7D4F8F6
:101D300008754FF005095FEA07784FF008070DD5E1
:101D4000C4F80875D4F80C2542F00202C4F80C253A
:101D5000006801F08CFB85F8619078E7D4F808857D
:101D60004FF0100A5FEAC86819D50322EB6585F8C1
:101D7000612095F83D2022B995F83C200AB985F8F4
:101D80003D60D4F80C2542F00202C4F80C2500682E
:101D900004F5A16401F06BFB5046206057E7D4F8CE
:101DA00008855FEA08681FD5066956B1EE6D761C96
:101DB000EE65022E12D9EB6585F86020FEF7B8FCBF
:101DC0000EE0062285F86120D4F80C2542F00202CC
:101DD000C4F80C25006801F04AFB01E085F860C0FA
:101DE0008020C4F8080532E7D4F808855FEA48582F
:101DF00012D5D4F80C2542F00202C4F80C25006874
:101E000004F5A16401F033FBC4F800A04FF4806036
:101E1000206085F861701AE7D4F80875BF0785D58A
:101E2000D4F80C7527F00207C4F80C7595F86170AA
:101E3000012F0AD0032F2CD0042F2AD0052F2BD00E
:101E4000062F2CD0082F2AD03CE085F8606095F84A
:101E50003F20022A01D0032A34D102692AB995F819
:101E6000552082F0010285F855200269012A29D106
:101E7000EA6C3AB3B5F840301A44521EB2FBF3F2A2
:101E8000D2071FD095F8552082F0010285F8552021
:101E900018E085F860C015E085F8609012E0EE6DFE
:101EA000761CEE65022E03D9EB6585F8602009E00B
:101EB00085F860C0D4F8002522F0804242F000424C
:101EC000C4F80025C4F808C595F86020FEF730FC7A
:101ED000BDE67CB504680546D4F840040190D4F80A
:101EE000400420F02E0000900198800709D5019849
:101EF000C00702D02846FEF7AFFB009840F0020072
:101F000000900198000724D5009840F00800009048
:101F1000019840071AD5A869022803D0E86801286B
:101F20000CD00FE00198C0F341400228286803D08C
:101F3000012101F08BFC05E00221FAE74EF660205A
:101F4000C4F804042846FEF765FD02E02846FEF7C3
:101F50005DFD01988006009802D540F020000090B9
:101F6000C4F840047CBD2DE9F041024600680646F5
:101F7000016AC1F3434301F00F07C1F30A15022BB5
:101F800031D1002D2FD007EB470101EBC70102EB48
:101F90008104616C002926D0226DE36C2A449A42A8
:101FA00023D82A4601F071FC606C28446064206DDF
:101FB0002844206506EB4710D0F81015B4F84020EF
:101FC000C1F3C941AA420ED100290CD0D0F80015A6
:101FD00021F0804141F00041C0F8001514F8540F81
:101FE00080F001002070BDE8F081042084F86000DA
:101FF000F9E7FEE770B515490268154B4FF040242C
:102000008A4201D11A4600E02246D568C26A961C6F
:10201000C6621580428E521E4286428E002A14D11C
:1020200002688A4201D1194600E02146496821F040
:10203000600100D023465960418D002905D14FF041
:10204000010180F84110FEF70DFF70BD003800401F
:102050000034004070B5416A144B8A1C4262056826
:102060000988134A4FF040249D4201D1154600E0F3
:102070002546E960418D491E4185418D002914D1D5
:102080000168994201D1114600E02146496821F0DA
:10209000A00100D022465160418E002905D14FF0A9
:1020A000010180F84110FEF7DDFE70BD00380040F0
:1020B000003400407CB5016804468868009094F8BC
:1020C00041000125042834D10098C00718D0486881
:1020D000C043400614D4C9682046E26A1180E16A10
:1020E000891CE162618E491E6186618E41B9016879
:1020F0004A6822F060024A6080F84150FEF7B6FF5D
:102100000098400615D520684168C943890610D457
:10211000416821F0600141602068C16880680190D9
:1021200084F84150606C40F0020060642046FEF785
:102130009AFE94F84100032834D10098800719D5FD
:1021400021684868C043000614D4626A2046128899
:10215000CA60616A891C6162618D491E6185618DF9
:1021600041B901684A6822F0A0024A6080F84150F3
:10217000FEF77DFF0098000714D520684168C94329
:1021800089060FD4416821F0A00141602068806871
:10219000009084F84150606C40F004006064204678
:1021A000FEF761FE7CBD000020B100220121024843
:1021B000FEF746BA0122F9E7000802402DE9F04F88
:1021C00087B014216846FEF747F84E48002401689E
:1021D00041F010010160016801F0100105910168F2
:1021E00041F004010160016801F0040105910168FA
:1021F00041F080010160016801F0800105910168F2
:1022000041F001010160016801F0010105910168DF
:1022100041F002010160016801F0020105910168CD
:1022200041F0080101600068002200F008000590FC
:1022300008213548FEF704FADFF8D0800122114664
:102240004046FEF7FDF9DFF8C8B04FF21009002252
:1022500049465846FEF7F4F9082601250096CDE9CF
:102260000154694628480394FEF7EAF80095CDE941
:102270000154694640460394FEF7E2F800960226B0
:10228000CDE901640527CDE9034769464046FEF7DD
:10229000D7F84FF490180095CDE9018469461D48A0
:1022A000FEF7CEF80420CDE90004DFF86CA0694603
:1022B00050460294FEF7C4F8A8020090CDE90164EC
:1022C000CDE9034769465046FEF7BAF8CDF80090CD
:1022D000CDE90154694658460394FEF7B1F8202031
:1022E000CDE90004694658460294FEF7A9F8009625
:1022F000CDE9018469460448FEF7A2F807B0BDE8BD
:10230000F08F000030380240001002400008024008
:10231000000C024000000240000402400E4810B5CC
:102320000C4901604FF48271416000218160C160FD
:102330004FF400720161C0E90512C161016241629E
:1023400081620A21C162FFF78BFA002801D072B6C0
:10235000FEE710BD00300140D800002010B501227A
:102360000B490C4800F0D3FC08B1FEF74AF80A49C3
:10237000084800F057FF08B1FEF743F8054800F0A1
:1023800094FF002803D0BDE81040FEF73AB810BD16
:10239000C13200083001002014000020014800F084
:1023A0002DBE000030010020FEE7FEE70148FEF7E9
:1023B0000DBA00000805002070477047FEF758BEB0
:1023C00070B596B030216846FDF746FF14210CA881
:1023D000FDF742FF00252548119512951395149598
:1023E000016841F080510160006800F08050159054
:1023F0001F48016841F4804101600068012600F433
:10240000804015903004CDE9006002248001CDE9C0
:102410000640082008904FF4A870CDE90904072071
:102420000B906846FFF766F808B172B6FEE70CA994
:102430000F2081E831004FF4A0500F904FF48050EE
:10244000109005210CA8FEF77BFF08B172B6FEE7DD
:10245000C020CDE91204119611A8FEF7D3FE002882
:1024600001D072B6FEE716B070BD000040380240E1
:10247000007000400248016841F47001016070473B
:1024800088ED00E010B500224FF6FF7300EB8204E8
:10249000B4F8844324040BD49A4207D002F00F030B
:1024A00000EB830041F40041C0F88413D0B210BDAA
:1024B000521CD2B20B2AE9D31A46F7E77FB51C4665
:1024C000012501AE0023009586E80E0002232A466E
:1024D000214600F009FD04B0002070BD7FB51D4607
:1024E00090F81D33089C03B100240123CDE900318D
:1024F000CDE9022402230022294600F0F5FC04B0B5
:10250000002070BD70B50446D0F87C03C169204638
:102510004031FDF778FF050004D1D4F8D42302211F
:1025200020469047284670BD70B50546D0F87C031C
:102530000026C469217839B1284600F027F92178AE
:10254000284600F0ABF92670217B39B1284600F00F
:102550001DF9217B284600F0A1F92673617B39B172
:10256000284600F013F9617B284600F097F966735E
:10257000D5F87C03C06920B101F062FAD5F87C037C
:10258000C661002070BDFEB502220546012311463A
:1025900000F062F90646FF2841D0022E3FD20146E4
:1025A000284600F04DFED0BB502001F0C3FAD5F80C
:1025B0007C130446C861200031D05021FDF74CFE49
:1025C00006EB860000EBC60005EB400191F84E03D8
:1025D000020603D56070B1F8500360816178284627
:1025E000FFF750FF2070014695F81D036389032211
:1025F0008DE80D0095F81C336278284600F085FCC4
:1026000021780022284600F04BFC00231A460A21BC
:10261000284600F021F9FF2801D0022801D302202A
:10262000FEBD00EB800101EBC00005EB400090F81F
:102630004E130A0604D5E173B0F85013618303E02A
:10264000A173B0F85013218390F856130A0604D5ED
:10265000E173B0F85803608303E0A173B0F8580346
:102660002083A17B2846FFF70DFF6073E17B28469E
:10267000FFF708FF2073208B95F81D1302260091A9
:10268000CDE9016095F81C33A27B617B284600F000
:102690003CFC608B95F81D130091CDE9016095F825
:1026A0001C33E27B217B284600F02FFC002084F8BD
:1026B0004C000246617B284600F0F2FB217B0022A1
:1026C000284600F0EDFB0020FEBD70472DE9F041EB
:1026D0000546D0F87C0301270026C4694FF00408A2
:1026E00094F84C0005284AD2DFE800F00305163BB9
:1026F0004200002743E02122A16C2A7420226A7440
:102700006E82AE8207222846EA8200F062F848B95B
:10271000022084F84C0032E004F140012846FDF725
:1027200072FE20B101282AD084F84C8027E084F87A
:102730004C60A06C94F84410027991421FD194F837
:102740004610827991421AD194F84510427991420B
:1027500015D1216C0068814211D12846FFF7B5FFE1
:102760000DE02846FDF7EAFD2846FDF7B3FD06E03B
:102770000021284600F00FF808B984F84C6038466C
:10278000BDE8F081704700207047704710B500F039
:10279000DDFA002010BD8278012A07D102220274DE
:1027A00001224274002242828182C28200221146AA
:1027B00000F00FB87FB51C46012501AE002300953F
:1027C00086E80E002A46214600F08EFB04B0002069
:1027D00070BD70B504460120A3780546012B0BD0CF
:1027E000022B08D1204600F014F958B1032809D073
:1027F000022800D1A57070BDA160A28125760221BA
:10280000A17070BDA5700021217670BD7FB51D46F9
:1028100090F81D33089C03B100240123CDE9003159
:10282000CDE9022400231A46294600F05DFB04B0DE
:10283000002070BD1FB500231446CDE900310822E9
:10284000CDE902231A46214600F04EFB04B00020D9
:1028500010BDFDF7E3BD000070B50546002005F58D
:102860004E7500BF00EB800404EBC00405EB44048C
:10287000E67B0A348E4201D0FF2909D1A67996421F
:1028800001D0FF2A04D1E4799C4206D0FF2B04D06A
:10289000401CC0B20228E5D3FF2070BD0B2907D22F
:1028A00000EB8100B0F88413C1F30E01C0F884136B
:1028B0000020704730B48578029C012D0FD141F083
:1028C000800101740621417403214282B1EB122F71
:1028D00002D140F2094100E000218182C4822246F7
:1028E00030BC1946FFF775BF0A8803781A440A807E
:1028F000017808447047F8B50E4600F11C050091B8
:1029000004462B464FF400720021FFF7D3FF070067
:1029100005D13246294604F54E7000F000FB3846DA
:10292000F8BD38B50D460091044600F58E734FF49E
:1029300080720021FFF7BEFF002839D194F81C11E6
:1029400084F8261394F81D1184F82713B4F81E1187
:10295000A4F8281394F8201184F82A1394F821116C
:1029600084F82B1394F8221184F82C1394F8231173
:1029700084F82D13082D1BD9B4F82411A4F82E13B4
:10298000B4F82611A4F83013B4F82811A4F83213BF
:1029900094F82A1184F8341394F82B1184F8351321
:1029A00094F82C1184F8361394F82D1184F8371309
:1029B00038BDF8B51C461646009341F4407200F548
:1029C0008E731D460021FFF775FF002814D169782A
:1029D000032911D129788A1EA24200D81446002169
:1029E000A2B2AD1C04E06B5C891C06F8013B89B205
:1029F0009142F8D300213170F8BD01004FF0000082
:102A000004D0012901D0022901D002207047012001
:102A100070472DE9F84F0125017E04460B26092752
:102A200028464FF007084FF0050A4FF00D090C2912
:102A300019D2DFE801F0B4060E26313C48606B7C09
:102A4000899A627904F110012046FFF7F3FE022013
:102A500012E06179204600F0C5F9012804D004286D
:102A600071D002287FD09AE0207CE18A00F08000BB
:102A700021B180283AD10320207690E0802814D01C
:102A80002EE0D4F8C403E0812379A2892046A1680E
:102A9000FFF790FE0420EFE72179204600F0A2F92D
:102AA000012802D0052840D056E0277677E0009034
:102AB0006379A2892046A168FFF7A8FED4F8C40371
:102AC000E0810620D8E76179204600F08BF90128E3
:102AD00006D0052807D0022808D0042809D05EE0D7
:102AE00084F818805BE00C2020761EE084F818A0A3
:102AF00055E0267652E00022237911462046FFF762
:102B000059FED4F8C403E0810820B5E721792046B6
:102B100000F068F9012804D0042824D0052804D046
:102B20003DE084F81890002539E0032537E0009057
:102B30000022637911462046FFF768FED4F8C403EB
:102B4000E0810A2098E70EE06179204600F04AF91A
:102B5000012804D00228A8D0042804D01FE00025B2
:102B600084F818901BE0267619E0617E491CC9B2F2
:102B70006176022902D82076A07010E0D4F8D42320
:102B80000621204690470025657661792046FFF7AB
:102B900085FE21792046FFF781FE25700225284613
:102BA000BDE8F88F2DE9FE43044601264078002554
:102BB0000D27B04604F58E7208280CD2DFE800F02D
:102BC000042A3C686F86929908212046FFF7A9FEE7
:102BD00010B103280DD097E094F82D03A07184F86C
:102BE000018094F81D130091CDE9015094F81C3335
:102BF00038E094F81E03401CC0B284F81E0303287A
:102C000018D861792046FFF749FE21792046FFF761
:102C100045FE59E012212046FFF783FEA8BB0220A3
:102C200047E000BF94F81E03401CC0B284F81E03A6
:102C3000032840D9277067E00121204600F00BFBF4
:102C400010B1032822D05FE00220FFF702FE84F8D3
:102C50001C8303206070A07994F81D13CDE9001542
:102C60004346029021798022204600F04EF9A07957
:102C700094F81D130091CDE9015094F81C3361794B
:102C80000022204600F041F93EE00EE027702EE0E1
:102C900009212046FFF72FFE38B9042009E0B4F8D7
:102CA0003A132046FFF727FE10B10328BAD02BE0D5
:102CB0000520607028E061792046FFF7EFFD21795B
:102CC0002046FFF7EBFD657025701DE094F8341386
:102CD00006250AE0FF232046FFF76BFE38B10328E4
:102CE00005D011E094F8351307250029F2D165705D
:102CF0000AE094F8361331B1FF232046FFF759FE5E
:102D000008B1032800D100263046BDE8FE8370B527
:102D10000E46040018D084F8CC230025C4F87C5358
:102D2000C4F8805304F54874FDF742FBE570257044
:102D30006570A570A4F548740EB1C4F8D46320463C
:102D400000F064F8002070BD022070BD10B5D0F80E
:102D5000D003FDF7A0FCBDE81040FFF74EBE0121F7
:102D600080F82013002180F8211380F822130846F0
:102D7000704710B50446012084F82103002084F830
:102D8000200384F82303204600F0A5F8217920468B
:102D9000FFF784FD61792046FFF780FD002010BD1C
:102DA00010B590F8CC03012802D10846FFF7FCF9D2
:102DB000C820FDF733FB002010BDD0F8D003FDF78D
:102DC00062BC10B50124D0F8D003FDF750FC20B14F
:102DD000012805D0022803D101E0002400E00224EC
:102DE000204610BDD0F8D003FDF744BCD0F8C41382
:102DF000491CC0F8C41301780B2905D1D0F87C1305
:102E0000002901D0896908477047000010B50446C1
:102E100090F8CC0301281CD10F484FF0A0410022AC
:102E2000C0F80043C4F8D00301600821816001218B
:102E3000C0E903120221C0E90612FDF764FD08B1E2
:102E4000FDF7DFFA0448FDF70FFC0146204600F0CD
:102E500024F8002010BD000008050020FEB508AFD2
:102E600097E870008DE87000D0F8D003FDF725FCDE
:102E7000BDE8FE40FFF7C1BD002180F82313704775
:102E8000012180F82313704710B5D0F8D003FDF767
:102E9000C5FDBDE81040FFF7B0BDC0F8C4137047D2
:102EA000D0F8D00301EB410303EBC10100EB81003B
:102EB00090F83B1011B180F8542001E080F85520C3
:102EC0000020704710B5D0F8D003FDF7AEFDBDE887
:102ED0001040FFF792BD10B5D0F8D003FDF7BBFD51
:102EE000BDE81040FFF789BD2DE9FF410DF128082D
:102EF00098E8F0008DE8F000D0F8D003FDF719FC59
:102F000004B0BDE8F041FFF778BDFEB508AF97E823
:102F100070008DE87000FFF7A1FF0020FEBD2DE9D5
:102F2000F84105460B782B704B786B704B886B80A3
:102F30000B792B714B796B718B79AB71CB7908461F
:102F4000EB710027097A2972092A54D90921ADF8B1
:102F500000104BE06946FFF7C7FC4178042943D1D4
:102F600007EB870101EBC70105EB4108017888F801
:102F70000A10417888F80B10817888F80C10C17815
:102F800088F80D10017988F80E10417988F80F1033
:102F9000817988F81010C17908F10A0488F81110B5
:102FA000017A2172002615E06946FFF79DFC417801
:102FB00005290FD108EBC60102780A7542784A75D7
:102FC00082788A75C278CA7582880A838279761C6B
:102FD0008A76F6B22179B14204D96A88BDF8001028
:102FE0008A42E1D87F1CFFB2022F04D26988BDF863
:102FF00000209142AED8BDE8F8810000FEB5022164
:1030000004468DF8001094F821230020012A01D1F4
:103010000322227022780D26082700250C2A17D2B9
:10302000DFE802F0061734DEF869C27C848C9AD798
:1030300094F8200300280BD001202070C820FFF74F
:1030400008FC2046FFF720FF84F81C53C4F8C8533F
:10305000E0E094F8230301280DD0D4F8C803B0F5BC
:103060007A7F0CD994F81F03401CC0B284F81F0368
:10307000032870D86DE084F81F532170CAE00A302D
:10308000C4F8C8030A20FFF7E4FBC3E0D4F8D42354
:1030900012B10421204690476420FFF7DAFB204656
:1030A000FFF78FFE84F81D030520207000212046C5
:1030B000FFF7E8F9607180212046FFF7E3F92071FE
:1030C0000146A07994F81D230092CDE9015094F8AF
:1030D0001C3380222046FFF718FFA07994F81D13B7
:1030E0000091CDE9015094F81C336179002220460B
:1030F000FFF70BFF8EE02046FFF754FD8DF8000030
:103100009DF80000002808D184F8245394F8370370
:10311000012801D0072058E027707BE0D4F8D423A1
:10312000002A77D0012120469047F5E794F83D1317
:10313000204600F09EF8B0BB092046E094F83F031B
:103140004FF00A05800604D50121204600F09FF8C3
:1031500048BB25705EE03AE0D4F8801319B3C4F898
:103160007C5394F8471300BF04EB8002D2F8782315
:1031700012798A4206D104EB8000D0F87803C4F8B3
:103180007C0304E0401C10F0FF00EDD02846F0B1B5
:10319000816820468847D0B906202070D4F8D4230F
:1031A00003212046904735E0D4F87C0378B10169CB
:1031B000204688478DF800009DF8000020B19DF85A
:1031C0000000022803D025E00B20207022E02670AA
:1031D00020E0D4F87C03E8B141692046884719E033
:1031E00084F821532046FDF7E3F8D4F87C0320B19E
:1031F000C16820468847C4F87C53D4F8D42312B160
:1032000005212046904794F82203012804D0204647
:10321000FFF758FE0020FEBD84F82253204600F040
:1032200044F8F7E7002211B1D0F8803313B102223D
:10323000104670470123C0F88033C0F87813F7E7D1
:103240000246002092F83C338B4202D982F82413C4
:103250007047022070478278012A06D1002202744A
:103260000523437441828282C28200221146FFF705
:10327000B0BA8278012A06D100220274092343746D
:1032800041828282C28200221146FFF7A2BA82786E
:10329000012A06D1002202740323437441828282F0
:1032A000C28200221146FFF794BA10B50446FFF718
:1032B00009FE01212046FFF773FD002010BD00002C
:1032C00001290AD00548022906D0042903D005297E
:1032D00003D1032100E001210170704700000020AC
:1032E00070B5044606990A9E049D0D98012916D0D2
:1032F000E06840F04000E060204600F02BF8A16B51
:103300001EB321F48031A163012D07D1A16841F0E2
:103310000601A160A16841F02001A16070BDA16B10
:1033200021F48031A163E168094A1140E160E1685C
:1033300021F44011E160012803D1E06840F48010DD
:10334000E060204600F006F8DEE741F48031DAE77D
:10335000BFFFBDFF08B500220D490092009B5B1C1A
:1033600000938B420CD80369002BF7DA00920269B4
:1033700042F001020261009A521C00928A4201D975
:10338000032008BD0269D207F5D1002008BD000066
:10339000400D0300816821F0010181600020704729
:1033A00000EB4110064AC0F81025D0F8001521F0B6
:1033B000804141F00041C0F8001500207047000036
:1033C0000000088008B5D0F8402422F02E020092B8
:1033D000D20405D4012909D1009941F4805103E0B8
:1033E00021B9009921F48051C0F84014002008BD93
:1033F000816841F0010181600020704708B500211B
:103400000091102101610649009A521C00928A42E3
:1034100001D9032008BD0269D206F5D4002008BDF9
:10342000400D030008B500220092202242EA8111DB
:1034300001610649009A521C00928A4201D9032078
:1034400008BD02699206F5D4002008BD400D0300B6
:10345000D0F8080480B2704708B5D0F84004009056
:10346000C0F3414008BD406900F00100704710B54D
:1034700000EB4111D1F80025D1F80035C2F38142AB
:103480008468DB0FA40600D51BB34FF47A736AB1CE
:10349000022A0BD0D1F8002542F08042C1F8002565
:1034A000D0F8100410F47F0F31D00CE0D1F80025D3
:1034B00042F08042C1F800258268920609D4C06AB1
:1034C00010F47F0F07D0D1F8000540F00040C1F89C
:1034D0000005002010BDD1F8000520F00040C1F823
:1034E0000005D1F8000540F00040C1F80005D1F812
:1034F000000520F40040C1F80005012002E0401C56
:103500009842E6D8D1F80025002AF8DBE1E7D1F8A7
:10351000000520F00040C1F80005D1F8000540F09A
:103520000040C1F80005D1F8000520F40040C1F8C2
:103530000005012002E0401C9842CAD8D1F80025BD
:10354000002AF8DBC5E700002DE9F0431E46DDE95F
:103550000785002700EB41147B1EDDF82490C4F89A
:103560000835D5B1012D33D0022D16D0032D28D02A
:103570005FF00107D0F8183401F00F0C012101FAB7
:103580000CF10B43C0F81834816941F0007181617E
:1035900011062AD54FF4004128E040F29D43C4F8BB
:1035A0000C35130605D500BFD4F80C3543F48073F1
:1035B00018E0C36BDB05DDD5D4F80C3543F06003B0
:1035C00010E040F29D63C4F80C351306ECD4D1E74B
:1035D00040F22523C4F80C351306CBD5D4F80C35AE
:1035E00043F4C073C4F80C35C4E70021FFF734FF7F
:1035F000B8F1020F04D1022802D04FF4003000E0ED
:1036000000204FF0FE5303EA86534FF4F04606EADB
:10361000C22213434FF4402202EA85421343C9F306
:103620000A0213430B430343C4F80035032D05D1AD
:10363000D4F8000540F00050C4F800053846BDE855
:10364000F083D0F8140480B27047F8B54C78C56B9D
:103650004FF48073ED0515D50D799DB9012A01D080
:103660006AB10FE0CD790DB1022D0BD100EB4415FD
:10367000D5F80C6526F07006C5F80C6502E04D79AA
:10368000012D0DD04E697EB10D8977197F1EB7FBD4
:10369000F5F7BFB29F4208D91F462B020B6104E029
:1036A0002146FFF77DFE6EE00127CB781BB10B8929
:1036B0007B430B6101E033460E61C3F312056FF0EB
:1036C000604303EAC7431D438B7A4FF0C04606EAC6
:1036D00043731D4300EB4413C3F8105512B1CC687B
:1036E000C3F81445D0F80844D3F8005544F3000457
:1036F00025F00055C3F80055D3F80055641C45EA81
:103700004474C3F80045D3F8004524F08044009485
:10371000CC78002C009C02D044F4004401E024F456
:10372000004444F000440094C3F800455ABBCA78F2
:103730004ABB4A693AB3CB7933B1012B0FD0022B84
:1037400002D0032B17D10AE0D21CC36AC2F38F0246
:103750009BB293420FD2826942F020020AE0D21C4F
:10376000D0F81034C2F38F029BB2934203D2826925
:1037700042F080628261002200928A8A93B24A7883
:10378000C96800F029F90020F8BD0000F0B5002557
:10379000059F16460446C0F8005E806B40F400109A
:1037A000A063A06B20F40020A063A06B20F4802015
:1037B000A063E06BC00501D5012B04D0D4F8000450
:1037C00020F0040103E0D4F8000440F00401204696
:1037D000C4F800141021FFF725FE2046FFF70EFE67
:1037E0000020411E07E000BF04EB4012C2F808159C
:1037F000C2F80C55401C8642F6D8A5616161E06BA9
:10380000C00506D54FF4007060620B48A0620B48FB
:1038100004E0802060620A48A0620A48C4F80001FF
:103820001FB9A06940F01000A061A06906490843D3
:10383000A0610020F0BD0000000200010003E000D4
:1038400080006000E0004000080020A3D0F80024C1
:1038500022F00302C0F80024D0F8002401F0030392
:103860001A43C0F80024012902D0022903D006E03F
:103870004BF6803101E041F27071C0F80414002071
:103880007047416980690840704730B50346084673
:10389000940802F00301002203F5805303E01D6841
:1038A00040F8045B521CA242F9D300290BD01C68DB
:1038B0000022D50024FA05F3491E521C090400F821
:1038C000013B090CF5D130BD38B50446D0F84004B1
:1038D00020F02E00009040F48070C4F84004642072
:1038E00004F58864FCF79AFD009820F4807020604D
:1038F0000A20FCF793FD002038BD70B50446C0686F
:10390000002520F0C040E060012901D079B120E01D
:10391000E06840F00050E0600120FCF77FFD606946
:103920006D1C10F0010F10D1322DF5D30DE0E068C1
:1039300040F08040E0600120FCF770FD60696D1C84
:1039400010F0010F01D0322DF5D3322D01D000201F
:1039500070BD012070BD000030B5044680680025B0
:1039600020F00100A06010212046FFF75BFD2046FB
:10397000FFF744FD5FF0000004EB4011D1F8002593
:1039800022F0802242F08042C1F80025401C0F281E
:10399000F2D900204FF47A7304EB4011D1F80025DE
:1039A00022F4004242F04042C1F800256D1C9D42C5
:1039B00003D8D1F80025002AF8DB401C0F28EBD9EA
:1039C0004FF0FF30C4F814046061A06840F00100BB
:1039D000A060002030BD000010B5029C74B9DB1C53
:1039E0009C0800EB0230002300F5805004E000BF8B
:1039F00051F8042B02605B1CA342F9D3002010BDD8
:103A0000FEE70907090E002804DB00F1E02080F83A
:103A10000014704700F00F0000F1E02080F8141D42
:103A2000704702E008C8121F08C1002AFAD1704787
:103A30007047002001E001C1121F002AFBD170472E
:103A400010B5002821D0114B0022001F196803E097
:103A5000814203D80A4649680029F9D152B1136856
:103A6000841A9C4204D1006818441060104602E099
:103A7000506000E0186039B102680B1A934203D11C
:103A80000B681A4402604968416010BD3400002090
:103A9000FDF7F6FAFEF794FCFEF790FB20481F496D
:103AA000002401601F49C0E901144FF48045C0E9BA
:103AB000034544618461C4610462FCF7DFFF08B11F
:103AC00072B6FEE716481849543001604915C0E93E
:103AD0000114C0E903411549C0E90514C461046239
:103AE000FDF7C2F908B172B6FEE7FEF717FCFEF764
:103AF00035FC0F4C4FF40056FEF750FC294620468B
:103B0000FCF796FD6420FCF789FC31462046FCF763
:103B10008FFD6420FCF782FCEEE7000000540040BB
:103B20003C000020A0860100003C0040007701001E
:103B3000000C0240F0B50B30154D20F007010024B9
:103B4000144A0FE003688B420BD38B4205D95E1AEF
:103B500043184768C3E9006700E04368136002C088
:103B600004E0021D10680028ECD12046002802D194
:103B7000286808B10020F0BD064A07481060074ACF
:103B8000121A22F00702C0E9002401202860D7E7BA
:103B9000380000203400002014080020100A002003
:103BA00000000000000000000102030406070809ED
:103BB000000000000102030443444300DC3B000812
:103BC000000000203C000000223A0008183C0008D9
:103BD0003C000020D40D0000323A00080000000034
:103BE0000100000010000000000000000024F400AC
:103BF000B83B0008020000008725000829250008BE
:103C000005250008CD2600088727000800000000D1
:083C10000000000000000000AC
:040000050800018965
:00000001FF
